{
  "contractName": "Tether",
  "abi": [
    {
      "inputs": [],
      "stateMutability": "nonpayable",
      "type": "constructor"
    },
    {
      "anonymous": false,
      "inputs": [
        {
          "indexed": true,
          "internalType": "address",
          "name": "owner",
          "type": "address"
        },
        {
          "indexed": true,
          "internalType": "address",
          "name": "spender",
          "type": "address"
        },
        {
          "indexed": false,
          "internalType": "uint256",
          "name": "value",
          "type": "uint256"
        }
      ],
      "name": "Approve",
      "type": "event"
    },
    {
      "anonymous": false,
      "inputs": [
        {
          "indexed": true,
          "internalType": "address",
          "name": "from",
          "type": "address"
        },
        {
          "indexed": true,
          "internalType": "address",
          "name": "to",
          "type": "address"
        },
        {
          "indexed": false,
          "internalType": "uint256",
          "name": "value",
          "type": "uint256"
        }
      ],
      "name": "Transfer",
      "type": "event"
    },
    {
      "inputs": [],
      "name": "decimals",
      "outputs": [
        {
          "internalType": "uint8",
          "name": "",
          "type": "uint8"
        }
      ],
      "stateMutability": "view",
      "type": "function",
      "constant": true
    },
    {
      "inputs": [],
      "name": "name",
      "outputs": [
        {
          "internalType": "string",
          "name": "",
          "type": "string"
        }
      ],
      "stateMutability": "view",
      "type": "function",
      "constant": true
    },
    {
      "inputs": [],
      "name": "symbol",
      "outputs": [
        {
          "internalType": "string",
          "name": "",
          "type": "string"
        }
      ],
      "stateMutability": "view",
      "type": "function",
      "constant": true
    },
    {
      "inputs": [],
      "name": "totalSupply",
      "outputs": [
        {
          "internalType": "uint256",
          "name": "",
          "type": "uint256"
        }
      ],
      "stateMutability": "view",
      "type": "function",
      "constant": true
    }
  ],
  "bytecode": "0x60806040526040518060400160405280601181526020017f4d6f636b2054657468657220546f6b656e0000000000000000000000000000008152506000908051906020019061004f929190610130565b506040518060400160405280600581526020017f23555344540000000000000000000000000000000000000000000000000000008152506001908051906020019061009b929190610130565b5069021e19e0c9bab24000006002556012600360006101000a81548160ff021916908360ff1602179055503480156100d257600080fd5b50600254600460003373ffffffffffffffffffffffffffffffffffffffff1673ffffffffffffffffffffffffffffffffffffffff1681526020019081526020016000206000828254610124919061020c565b925050819055506102c3565b82805461013c90610291565b90600052602060002090601f01602090048101928261015e57600085556101a5565b82601f1061017757805160ff19168380011785556101a5565b828001600101855582156101a5579182015b828111156101a4578251825591602001919060010190610189565b5b5090506101b291906101b6565b5090565b5b808211156101cf5760008160009055506001016101b7565b5090565b6000819050919050565b7f4e487b7100000000000000000000000000000000000000000000000000000000600052601160045260246000fd5b6000610217826101d3565b9150610222836101d3565b9250827fffffffffffffffffffffffffffffffffffffffffffffffffffffffffffffffff03821115610257576102566101dd565b5b828201905092915050565b7f4e487b7100000000000000000000000000000000000000000000000000000000600052602260045260246000fd5b600060028204905060018216806102a957607f821691505b602082108114156102bd576102bc610262565b5b50919050565b6103bb806102d26000396000f3fe608060405234801561001057600080fd5b506004361061004c5760003560e01c806306fdde031461005157806318160ddd1461006f578063313ce5671461008d57806395d89b41146100ab575b600080fd5b6100596100c9565b6040516100669190610297565b60405180910390f35b610077610157565b60405161008491906102d2565b60405180910390f35b61009561015d565b6040516100a29190610309565b60405180910390f35b6100b3610170565b6040516100c09190610297565b60405180910390f35b600080546100d690610353565b80601f016020809104026020016040519081016040528092919081815260200182805461010290610353565b801561014f5780601f106101245761010080835404028352916020019161014f565b820191906000526020600020905b81548152906001019060200180831161013257829003601f168201915b505050505081565b60025481565b600360009054906101000a900460ff1681565b6001805461017d90610353565b80601f01602080910402602001604051908101604052809291908181526020018280546101a990610353565b80156101f65780601f106101cb576101008083540402835291602001916101f6565b820191906000526020600020905b8154815290600101906020018083116101d957829003601f168201915b505050505081565b600081519050919050565b600082825260208201905092915050565b60005b8381101561023857808201518184015260208101905061021d565b83811115610247576000848401525b50505050565b6000601f19601f8301169050919050565b6000610269826101fe565b6102738185610209565b935061028381856020860161021a565b61028c8161024d565b840191505092915050565b600060208201905081810360008301526102b1818461025e565b905092915050565b6000819050919050565b6102cc816102b9565b82525050565b60006020820190506102e760008301846102c3565b92915050565b600060ff82169050919050565b610303816102ed565b82525050565b600060208201905061031e60008301846102fa565b92915050565b7f4e487b7100000000000000000000000000000000000000000000000000000000600052602260045260246000fd5b6000600282049050600182168061036b57607f821691505b6020821081141561037f5761037e610324565b5b5091905056fea2646970667358221220aabaf7a6c7095d9caf30303a32d2b66f07adb2180a84b807732e7d83f93aba1064736f6c634300080c0033",
  "immutableReferences": {},
  "source": "pragma solidity >=0.7.0 <0.9.0;\r\n\r\ncontract Tether {\r\n    string public name = \"Mock Tether Token\";\r\n    string public symbol = \"#USDT\";\r\n    uint256 public totalSupply = 10000000000000000000000;\r\n    uint8 public decimals = 18;\r\n    mapping(address => uint256) balanceOf;\r\n\r\n    constructor() {\r\n        balanceOf[msg.sender] += totalSupply;\r\n    }\r\n\r\n    event Transfer(address indexed from, address indexed to, uint256 value);\r\n    event Approve(\r\n        address indexed owner,\r\n        address indexed spender,\r\n        uint256 value\r\n    );\r\n}\r\n",
  "sourcePath": "C:\\Users\\USER\\Documents\\Repos\\defi-staking-app\\src\\contracts\\Tether.sol",
  "compiler": {
    "name": "solc",
    "version": "0.8.12+commit.f00d7308.Emscripten.clang"
  },
  "schemaVersion": "3.4.5",
  "updatedAt": "2022-03-11T01:15:02.426Z",
  "networkType": "ethereum",
  "devdoc": {
    "kind": "dev",
    "methods": {},
    "version": 1
  },
  "userdoc": {
    "kind": "user",
    "methods": {},
    "version": 1
  }
}